{
  "address": "0x2E21EFf44163d060b5357603AF2F13B3fa459A6c",
  "abi": [
    {
      "inputs": [
        {
          "internalType": "contract ITroveRegistry",
          "name": "_registry",
          "type": "address"
        }
      ],
      "stateMutability": "nonpayable",
      "type": "constructor"
    },
    {
      "anonymous": false,
      "inputs": [
        {
          "indexed": false,
          "internalType": "address",
          "name": "nftContract",
          "type": "address"
        },
        {
          "indexed": false,
          "internalType": "uint256",
          "name": "tokenId",
          "type": "uint256"
        },
        {
          "indexed": false,
          "internalType": "string",
          "name": "contractStandard",
          "type": "string"
        },
        {
          "indexed": false,
          "internalType": "uint256",
          "name": "value",
          "type": "uint256"
        }
      ],
      "name": "NewTreasure",
      "type": "event"
    },
    {
      "anonymous": false,
      "inputs": [
        {
          "indexed": true,
          "internalType": "address",
          "name": "previousOwner",
          "type": "address"
        },
        {
          "indexed": true,
          "internalType": "address",
          "name": "newOwner",
          "type": "address"
        }
      ],
      "name": "OwnershipTransferred",
      "type": "event"
    },
    {
      "inputs": [
        {
          "internalType": "address",
          "name": "",
          "type": "address"
        },
        {
          "internalType": "address",
          "name": "from",
          "type": "address"
        },
        {
          "internalType": "uint256",
          "name": "tokenId",
          "type": "uint256"
        },
        {
          "internalType": "bytes",
          "name": "",
          "type": "bytes"
        }
      ],
      "name": "onERC721Received",
      "outputs": [
        {
          "internalType": "bytes4",
          "name": "",
          "type": "bytes4"
        }
      ],
      "stateMutability": "nonpayable",
      "type": "function"
    },
    {
      "inputs": [],
      "name": "owner",
      "outputs": [
        {
          "internalType": "address",
          "name": "",
          "type": "address"
        }
      ],
      "stateMutability": "view",
      "type": "function"
    },
    {
      "inputs": [],
      "name": "renounceOwnership",
      "outputs": [],
      "stateMutability": "nonpayable",
      "type": "function"
    },
    {
      "inputs": [
        {
          "internalType": "address",
          "name": "newOwner",
          "type": "address"
        }
      ],
      "name": "transferOwnership",
      "outputs": [],
      "stateMutability": "nonpayable",
      "type": "function"
    }
  ],
  "transactionHash": "0x1c8fd727e87454c3317c140adcb991c94b73ad9a4cef94997fb53dd5b81214d4",
  "args": [
    "0x685C50f23384fEc27e1AD5B44F9cfe7835299067"
  ],
  "numDeployments": 1,
  "solcInputHash": "acb1698faec19b88ece0b8abdd0a039b",
  "bytecode": "0x60806040523480156200001157600080fd5b50604051620010d9380380620010d9833981810160405281019062000037919062000182565b620000576200004b6200009f60201b60201c565b620000a760201b60201c565b80600160006101000a81548173ffffffffffffffffffffffffffffffffffffffff021916908373ffffffffffffffffffffffffffffffffffffffff160217905550506200021b565b600033905090565b60008060009054906101000a900473ffffffffffffffffffffffffffffffffffffffff169050816000806101000a81548173ffffffffffffffffffffffffffffffffffffffff021916908373ffffffffffffffffffffffffffffffffffffffff1602179055508173ffffffffffffffffffffffffffffffffffffffff168173ffffffffffffffffffffffffffffffffffffffff167f8be0079c531659141344cd1fd0a4f28419497f9722a3daafe3b4186f6b6457e060405160405180910390a35050565b6000815190506200017c8162000201565b92915050565b6000602082840312156200019b576200019a620001fc565b5b6000620001ab848285016200016b565b91505092915050565b6000620001c182620001dc565b9050919050565b6000620001d582620001b4565b9050919050565b600073ffffffffffffffffffffffffffffffffffffffff82169050919050565b600080fd5b6200020c81620001c8565b81146200021857600080fd5b50565b610eae806200022b6000396000f3fe608060405234801561001057600080fd5b506004361061004c5760003560e01c8063150b7a0214610051578063715018a6146100815780638da5cb5b1461008b578063f2fde38b146100a9575b600080fd5b61006b600480360381019061006691906108ac565b6100c5565b6040516100789190610ab1565b60405180910390f35b610089610481565b005b610093610509565b6040516100a09190610a4c565b60405180910390f35b6100c360048036038101906100be9190610852565b610532565b005b6000806100d2600261062a565b905060003373ffffffffffffffffffffffffffffffffffffffff16636352211e876040518263ffffffff1660e01b815260040161010f9190610b84565b60206040518083038186803b15801561012757600080fd5b505afa15801561013b573d6000803e3d6000fd5b505050506040513d601f19601f8201168201806040525081019061015f919061087f565b90503073ffffffffffffffffffffffffffffffffffffffff168173ffffffffffffffffffffffffffffffffffffffff16146101cf576040517f08c379a00000000000000000000000000000000000000000000000000000000081526004016101c690610b44565b60405180910390fd5b6040518060c001604052806040518060400160405280600681526020017f45524337323100000000000000000000000000000000000000000000000000008152508152602001600073ffffffffffffffffffffffffffffffffffffffff1681526020013373ffffffffffffffffffffffffffffffffffffffff168152602001600181526020018873ffffffffffffffffffffffffffffffffffffffff168152602001878152506003600084815260200190815260200160002060008201518160000190805190602001906102a492919061071a565b5060208201518160010160006101000a81548173ffffffffffffffffffffffffffffffffffffffff021916908373ffffffffffffffffffffffffffffffffffffffff16021790555060408201518160020160006101000a81548173ffffffffffffffffffffffffffffffffffffffff021916908373ffffffffffffffffffffffffffffffffffffffff1602179055506060820151816003015560808201518160040160006101000a81548173ffffffffffffffffffffffffffffffffffffffff021916908373ffffffffffffffffffffffffffffffffffffffff16021790555060a08201518160050155905050600160009054906101000a900473ffffffffffffffffffffffffffffffffffffffff1673ffffffffffffffffffffffffffffffffffffffff1663a2fecb866000806000866040518563ffffffff1660e01b81526004016103f49493929190610acc565b600060405180830381600087803b15801561040e57600080fd5b505af1158015610422573d6000803e3d6000fd5b505050507f664e30c25d6198e96472436c3f622528b38c2cc567161320a3990d048b338b593383600160405161045a93929190610a67565b60405180910390a161046c6002610638565b63150b7a0260e01b9250505095945050505050565b61048961064e565b73ffffffffffffffffffffffffffffffffffffffff166104a7610509565b73ffffffffffffffffffffffffffffffffffffffff16146104fd576040517f08c379a00000000000000000000000000000000000000000000000000000000081526004016104f490610b64565b60405180910390fd5b6105076000610656565b565b60008060009054906101000a900473ffffffffffffffffffffffffffffffffffffffff16905090565b61053a61064e565b73ffffffffffffffffffffffffffffffffffffffff16610558610509565b73ffffffffffffffffffffffffffffffffffffffff16146105ae576040517f08c379a00000000000000000000000000000000000000000000000000000000081526004016105a590610b64565b60405180910390fd5b600073ffffffffffffffffffffffffffffffffffffffff168173ffffffffffffffffffffffffffffffffffffffff16141561061e576040517f08c379a000000000000000000000000000000000000000000000000000000000815260040161061590610b24565b60405180910390fd5b61062781610656565b50565b600081600001549050919050565b6001816000016000828254019250508190555050565b600033905090565b60008060009054906101000a900473ffffffffffffffffffffffffffffffffffffffff169050816000806101000a81548173ffffffffffffffffffffffffffffffffffffffff021916908373ffffffffffffffffffffffffffffffffffffffff1602179055508173ffffffffffffffffffffffffffffffffffffffff168173ffffffffffffffffffffffffffffffffffffffff167f8be0079c531659141344cd1fd0a4f28419497f9722a3daafe3b4186f6b6457e060405160405180910390a35050565b82805461072690610c86565b90600052602060002090601f016020900481019282610748576000855561078f565b82601f1061076157805160ff191683800117855561078f565b8280016001018555821561078f579182015b8281111561078e578251825591602001919060010190610773565b5b50905061079c91906107a0565b5090565b5b808211156107b95760008160009055506001016107a1565b5090565b6000813590506107cc81610e4a565b92915050565b6000815190506107e181610e4a565b92915050565b60008083601f8401126107fd576107fc610d1b565b5b8235905067ffffffffffffffff81111561081a57610819610d16565b5b60208301915083600182028301111561083657610835610d20565b5b9250929050565b60008135905061084c81610e61565b92915050565b60006020828403121561086857610867610d2a565b5b6000610876848285016107bd565b91505092915050565b60006020828403121561089557610894610d2a565b5b60006108a3848285016107d2565b91505092915050565b6000806000806000608086880312156108c8576108c7610d2a565b5b60006108d6888289016107bd565b95505060206108e7888289016107bd565b94505060406108f88882890161083d565b935050606086013567ffffffffffffffff81111561091957610918610d25565b5b610925888289016107e7565b92509250509295509295909350565b61093d81610bb0565b82525050565b61094c81610bc2565b82525050565b61095b81610c3e565b82525050565b61096a81610c50565b82525050565b61097981610c62565b82525050565b61098881610c74565b82525050565b600061099b600b83610b9f565b91506109a682610d2f565b602082019050919050565b60006109be602683610b9f565b91506109c982610d58565b604082019050919050565b60006109e1600683610b9f565b91506109ec82610da7565b602082019050919050565b6000610a04601383610b9f565b9150610a0f82610dd0565b602082019050919050565b6000610a27602083610b9f565b9150610a3282610df9565b602082019050919050565b610a4681610c34565b82525050565b6000602082019050610a616000830184610934565b92915050565b6000608082019050610a7c6000830186610934565b610a896020830185610a3d565b8181036040830152610a9a816109d4565b9050610aa9606083018461097f565b949350505050565b6000602082019050610ac66000830184610943565b92915050565b600060a082019050610ae16000830187610970565b8181036020830152610af28161098e565b9050610b016040830186610952565b610b0e6060830185610961565b610b1b6080830184610a3d565b95945050505050565b60006020820190508181036000830152610b3d816109b1565b9050919050565b60006020820190508181036000830152610b5d816109f7565b9050919050565b60006020820190508181036000830152610b7d81610a1a565b9050919050565b6000602082019050610b996000830184610a3d565b92915050565b600082825260208201905092915050565b6000610bbb82610c14565b9050919050565b60007fffffffff0000000000000000000000000000000000000000000000000000000082169050919050565b6000819050610bfc82610e22565b919050565b6000819050610c0f82610e36565b919050565b600073ffffffffffffffffffffffffffffffffffffffff82169050919050565b6000819050919050565b6000610c4982610bee565b9050919050565b6000610c5b82610c01565b9050919050565b6000610c6d82610c34565b9050919050565b6000610c7f82610c34565b9050919050565b60006002820490506001821680610c9e57607f821691505b60208210811415610cb257610cb1610ce7565b5b50919050565b7f4e487b7100000000000000000000000000000000000000000000000000000000600052602160045260246000fd5b7f4e487b7100000000000000000000000000000000000000000000000000000000600052602260045260246000fd5b600080fd5b600080fd5b600080fd5b600080fd5b600080fd5b7f54726561737572654e4654000000000000000000000000000000000000000000600082015250565b7f4f776e61626c653a206e6577206f776e657220697320746865207a65726f206160008201527f6464726573730000000000000000000000000000000000000000000000000000602082015250565b7f4552433732310000000000000000000000000000000000000000000000000000600082015250565b7f4e6f742061207265616c207472616e7366657200000000000000000000000000600082015250565b7f4f776e61626c653a2063616c6c6572206973206e6f7420746865206f776e6572600082015250565b60038110610e3357610e32610cb8565b5b50565b60028110610e4757610e46610cb8565b5b50565b610e5381610bb0565b8114610e5e57600080fd5b50565b610e6a81610c34565b8114610e7557600080fd5b5056fea26469706673582212209c76388b0a76f82de2f9432b3cd8ddf97732fbfaf94a1aea13f967b6ecf8046964736f6c63430008070033",
  "devdoc": {
    "custom:security-contact": "alex@homebox.ie",
    "kind": "dev",
    "methods": {
      "owner()": {
        "details": "Returns the address of the current owner."
      },
      "renounceOwnership()": {
        "details": "Leaves the contract without owner. It will not be possible to call `onlyOwner` functions anymore. Can only be called by the current owner. NOTE: Renouncing ownership will leave the contract without an owner, thereby removing any functionality that is only available to the owner."
      },
      "transferOwnership(address)": {
        "details": "Transfers ownership of the contract to a new account (`newOwner`). Can only be called by the current owner."
      }
    },
    "version": 1
  },
  "userdoc": {
    "kind": "user",
    "methods": {},
    "version": 1
  },
  "storageLayout": {
    "storage": [
      {
        "astId": 7,
        "contract": "src/Trove/TroveVault.sol:TroveVault",
        "label": "_owner",
        "offset": 0,
        "slot": "0",
        "type": "t_address"
      },
      {
        "astId": 2303,
        "contract": "src/Trove/TroveVault.sol:TroveVault",
        "label": "registry",
        "offset": 0,
        "slot": "1",
        "type": "t_contract(ITroveRegistry)2467"
      },
      {
        "astId": 2321,
        "contract": "src/Trove/TroveVault.sol:TroveVault",
        "label": "_tokenIdCounter",
        "offset": 0,
        "slot": "2",
        "type": "t_struct(Counter)1621_storage"
      },
      {
        "astId": 2326,
        "contract": "src/Trove/TroveVault.sol:TroveVault",
        "label": "treasureDetails",
        "offset": 0,
        "slot": "3",
        "type": "t_mapping(t_uint256,t_struct(TreasureDetails)2341_storage)"
      }
    ],
    "types": {
      "t_address": {
        "encoding": "inplace",
        "label": "address",
        "numberOfBytes": "20"
      },
      "t_contract(IERC1155)226": {
        "encoding": "inplace",
        "label": "contract IERC1155",
        "numberOfBytes": "20"
      },
      "t_contract(IERC721)1251": {
        "encoding": "inplace",
        "label": "contract IERC721",
        "numberOfBytes": "20"
      },
      "t_contract(ITroveRegistry)2467": {
        "encoding": "inplace",
        "label": "contract ITroveRegistry",
        "numberOfBytes": "20"
      },
      "t_mapping(t_uint256,t_struct(TreasureDetails)2341_storage)": {
        "encoding": "mapping",
        "key": "t_uint256",
        "label": "mapping(uint256 => struct TroveVault.TreasureDetails)",
        "numberOfBytes": "32",
        "value": "t_struct(TreasureDetails)2341_storage"
      },
      "t_string_storage": {
        "encoding": "bytes",
        "label": "string",
        "numberOfBytes": "32"
      },
      "t_struct(Counter)1621_storage": {
        "encoding": "inplace",
        "label": "struct Counters.Counter",
        "members": [
          {
            "astId": 1620,
            "contract": "src/Trove/TroveVault.sol:TroveVault",
            "label": "_value",
            "offset": 0,
            "slot": "0",
            "type": "t_uint256"
          }
        ],
        "numberOfBytes": "32"
      },
      "t_struct(TreasureDetails)2341_storage": {
        "encoding": "inplace",
        "label": "struct TroveVault.TreasureDetails",
        "members": [
          {
            "astId": 2328,
            "contract": "src/Trove/TroveVault.sol:TroveVault",
            "label": "contractStandard",
            "offset": 0,
            "slot": "0",
            "type": "t_string_storage"
          },
          {
            "astId": 2331,
            "contract": "src/Trove/TroveVault.sol:TroveVault",
            "label": "ERC721contract",
            "offset": 0,
            "slot": "1",
            "type": "t_contract(IERC721)1251"
          },
          {
            "astId": 2334,
            "contract": "src/Trove/TroveVault.sol:TroveVault",
            "label": "ERC1155contract",
            "offset": 0,
            "slot": "2",
            "type": "t_contract(IERC1155)226"
          },
          {
            "astId": 2336,
            "contract": "src/Trove/TroveVault.sol:TroveVault",
            "label": "value",
            "offset": 0,
            "slot": "3",
            "type": "t_uint256"
          },
          {
            "astId": 2338,
            "contract": "src/Trove/TroveVault.sol:TroveVault",
            "label": "source",
            "offset": 0,
            "slot": "4",
            "type": "t_address"
          },
          {
            "astId": 2340,
            "contract": "src/Trove/TroveVault.sol:TroveVault",
            "label": "tokenId",
            "offset": 0,
            "slot": "5",
            "type": "t_uint256"
          }
        ],
        "numberOfBytes": "192"
      },
      "t_uint256": {
        "encoding": "inplace",
        "label": "uint256",
        "numberOfBytes": "32"
      }
    }
  }
}